:1000000025C1000053C1000051C100004FC10000D4
:100010004DC100004BC1000049C1000047C10000B4
:1000200045C1000043C1000041C100003FC10000C4
:100030003DC100003BC1000039C1000037C10000D4
:1000400035C1000033C1000031C100002FC10000E4
:100050002DC100002BC1000029C10000AAC500006D
:1000600025C1000070C5000045C500001FC100008B
:100070001DC100001BC1000019C1000017C1000014
:1000800015C1000013C1000011C100000FC1000024
:100090000DC100000BC1000009C1000007C1000034
:1000A00005C1000003C1000001C10000FFC0000045
:1000B000FDC00000FBC00000F9C00000F7C0000058
:1000C000F5C00000F3C00000F1C00000EFC0000068
:1000D000EDC00000EBC00000E9C00000E7C0000078
:1000E000E5C0000001030403F302F702FB023B0337
:1000F00008030C03120316031A0320032403280326
:100100003B032E0332033603700375037A03840323
:100110008E0307049803A003A803B203BC03C6031D
:10012000D503DF030704E903F303FD03B108B408B3
:10013000B708BA08BD08C008C308C608C908CC0873
:10014000CF08D20800000A0B02090C0D0E080703A5
:10015000040100000000000000000000000000009A
:10016000000000000000000000000000000000008F
:10017000121110000000000000000000000000004C
:100180000000000000000000000000002200250028
:1001900028002B002E003100340002010000050170
:1001A00008010B0100002100240027002A002D0077
:1001B0003000330001010000040107010A010505B8
:1001C0000505070508080808020202020A0A0808CD
:1001D00004040404010101010101010103030303FB
:1001E00003030303040707070C0C0C0C0C0C0C0C8A
:1001F0000202020206060606060606060B0B0B0B9B
:100200000B0B0B0B010210202008081020401020BF
:1002100040800201020108040201010204081020CA
:1002200040808040201008040201800402018040C8
:100230002010080402010804020101020408102031
:1002400040800102040810204080230611241FBEB4
:10025000CFEFD1E2DEBFCDBF00E00CBF12E0A0E0E7
:10026000B2E0E4E0F5E100E00BBF02C007900D92C0
:10027000AC3AB107D9F723E0ACEAB2E001C01D9275
:10028000A63AB207E1F711E0C6E2D1E000E006C00D
:1002900021970109802FFE010E94740AC532D107FF
:1002A00080E00807A9F70ED50C94800AA9CEE1ECEE
:1002B000F2E0A089B18982E08C93A485B5851C9277
:1002C000A685B7858FEC8C93108EA489B58986E0BE
:1002D0008C93A289B3898C9180618C93A289B38914
:1002E0008C9188608C93A289B3898C9180688C935F
:1002F0000288F389E02D80818F7D8083089590E0CE
:10030000FC01EC5FFD4F2491FC01E254FE4F84910F
:10031000882399F090E0880F991FFC01EC55FE4F5F
:10032000A591B491FC01E657FE4F859194918FB74A
:10033000F894EC91E22BEC938FBF0895CF92DF926B
:10034000EF92FF920F931F93CF93DF936C017A018B
:100350008B01C0E0D0E0CE15DF0589F0D8016D91AA
:100360008D01D601ED91FC910190F081E02DC60147
:100370001995892B11F47E0102C02196ECCFC7019B
:10038000DF91CF911F910F91FF90EF90DF90CF9071
:100390000895089580E090E00895FC01538D448D08
:1003A000252F30E0842F90E0821B930B541710F020
:1003B000CF96089501970895FC01918D828D98172D
:1003C00061F0828DDF01A80FB11D5D968C91928D39
:1003D0009F5F9F73928F90E008958FEF9FEF089536
:1003E000FC01918D828D981731F0828DE80FF11DFF
:1003F000858D90E008958FEF9FEF0895FC01918D1A
:10040000228D892F90E0805C9F4F821B91098F7312
:100410009927089581EC92E0F1DF21E0892B09F41E
:1004200020E0822F0895FC01848DDF01A80FB11D0B
:10043000A35ABF4F2C91848D90E001968F7399271A
:10044000848FA689B7892C93A089B1898C91806407
:100450008C93938D848D981306C00288F389E02DC8
:1004600080818F7D80830895EF92FF920F931F9379
:10047000CF93DF93EC0181E0888F9B8D8C8D981357
:1004800005C0E889F989808185FD23C0F62E0B8D92
:1004900010E00F5F1F4F0F731127E02E8C8DE812B5
:1004A0000BC00FB607FCFACFE889F989808185FF78
:1004B000F5CFCE01B8DFF2CF8B8DFE01E80FF11D35
:1004C000E35AFF4FF0820B8FEA89FB8980818062BB
:1004D00007C0EE89FF896083E889F989808180649B
:1004E000808381E090E0DF91CF911F910F91FF9089
:1004F000EF900895CF93DF93EC01888D8823C1F0AE
:10050000EA89FB89808185FD05C0A889B9898C911C
:1005100086FD0EC00FB607FCF5CF808185FFF2CFB8
:10052000A889B9898C9185FFEDCFCE017CDFE8CF1A
:10053000DF91CF91089580E090E0892B19F06ADF78
:10054000811125C080E090E0892B41F080E090E0AF
:10055000892B21F00E94000081111CC080E090E0F6
:10056000892B41F080E090E0892B21F00E9400006F
:10057000811113C080E090E0892BA1F080E090E031
:10058000892B81F00E94000081110AC008950E9409
:100590000000D8CF0E940000E1CF0E940000EACF07
:1005A0000C9400000895362F90E0FC01EC5BFE4FA8
:1005B0004491FC01EC5FFD4F2491FC01E254FE4F9D
:1005C0009491992309F46AC0442309F454C050E07B
:1005D000FA013197E231F10508F04DC08827EE5855
:1005E000FF4F8F4F81C7809180008F7707C0809128
:1005F00080008F7D03C080918000877F8093800082
:100600003AC084B58F7702C084B58F7D84BD33C076
:100610008091B0008F7703C08091B0008F7D809370
:10062000B00029C0809190008F7707C08091900022
:100630008F7D03C080919000877F809390001BC0C6
:100640008091A0008F7707C08091A0008F7D03C0AC
:100650008091A000877F8093A0000DC08091200131
:100660008F7707C0809120018F7D03C0809120018A
:10067000877F80932001E92FF0E0EE0FFF1FE65700
:10068000FE4FA591B4918FB7F894EC91311103C04E
:1006900020952E2301C02E2B2C938FBF0895CF932E
:1006A000DF93EC0188E02BDE209711F460E004C0BA
:1006B000CF3FD10529F461E088E0DF91CF9173CF7E
:1006C000ECE4F1E0E4918E2F90E0FC013197E2310F
:1006D000F10508F09CC08827EC57FF4F8F4F04C7E7
:1006E00084B5806884BDC7BD97C084B5806284BD71
:1006F000C8BD92C080918000806880938000D093B4
:100700008900C093880088C08091800080628093B7
:100710008000D0938B00C0938A007EC080918000BF
:10072000886080938000D0938D00C0938C0074C04B
:100730008091B00080688093B000C093B3006CC01B
:100740008091B00080628093B000C093B40064C018
:1007500080919000806880939000D0939900C0931E
:1007600098005AC080919000806280939000D0934E
:100770009B00C0939A0050C0809190008860809345
:100780009000D0939D00C0939C0046C08091A00033
:1007900080688093A0008091A0008F7B8093A00050
:1007A000D093A900C093A80037C08091A0008062B8
:1007B0008093A000D093AB00C093AA002DC080917D
:1007C000A00088608093A000D093AD00C093AC00DF
:1007D00023C080912001806880932001D09329015B
:1007E000C093280119C0809120018062809320016C
:1007F000D0932B01C0932A010FC080912001886003
:1008000080932001D0932D01C0932C0105C0C038E6
:10081000D1050CF050CF4ACFDF91CF9108958633A8
:1008200008F0865390917B00282F2870977F922B99
:1008300090937B008770806480937C0080917A0025
:10084000806480937A0080917A0086FDFCCF80914D
:1008500078002091790090E0922B08953FB7F894AA
:100860008091B1029091B202A091B302B091B40212
:1008700026B5A89B05C02F3F19F00196A11DB11DFB
:100880003FBFBA2FA92F982F8827820F911DA11D36
:10089000B11DBC01CD0142E0660F771F881F991F73
:1008A0004A95D1F708958F929F92AF92BF92CF92BF
:1008B000DF92EF92FF926B017C01D0DF4B015C0174
:1008C000C114D104E104F104E9F0C8DFDC01CB017B
:1008D00088199909AA09BB09883E9340A105B10569
:1008E00078F321E0C21AD108E108F10888EE880EF9
:1008F00083E0981EA11CB11CC114D104E104F104D1
:1009000021F7DECFFF90EF90DF90CF90BF90AF90B8
:100910009F908F9008952FB7F8946091AD027091D9
:10092000AE028091AF029091B0022FBF0895CF9395
:10093000DF93C4E0D2E082E0C632D80729F0888194
:10094000229661E030DEF7CFDF91CF910895CF930B
:10095000E091B702F091B802EE0FFF1FEC5FFD4F80
:10096000C08161E08C2F1FDE64EF71E080E090E0D9
:100970009ADF60E08C2F17DE64EF71E080E090E09A
:10098000CF9191CF880F991FFC01EC5FFD4F61E083
:10099000808109CEB1D56115710579F0FB01019017
:1009A0000020E9F73197AF01461B570BDC01ED91B1
:1009B000FC910280F381E02D199480E090E008958D
:1009C0004F925F926F927F92EF92FF920F931F93DD
:1009D000CF93DF93CDB7DEB7A1970FB6F894DEBF04
:1009E0000FBECDBF7C01FA01CB0119A2223008F461
:1009F0002AE08E010F5D1F4F422E512C612C712C6D
:100A0000BF01A301920113D5F901CA0101501109D7
:100A10006A3014F4605D01C0695CD8016C93232BCB
:100A2000242B252B69F7B801C701B5DFA1960FB6B6
:100A3000F894DEBF0FBECDBFDF91CF911F910F9114
:100A4000FF90EF907F906F905F904F9008950F937D
:100A50001F93CF93DF93EC019EDF8C0160E672E081
:100A6000CE0199DF800F911FDF91CF911F910F91E0
:100A70000895CF92DF92EF92FF9266E372E081ECED
:100A800092E0E5DF8DE0C82ED12CE12CF12C86E33D
:100A9000C6DE803D9340ACF486E0C1DE9093B602A2
:100AA0008093B502813F910514F08AEF90E0F7DD65
:100AB0004DD4A7019601DDD47093B8026093B702BC
:100AC000E6CF86E3ACDEBC01990F880B990B50D4BE
:100AD00020E030EC43E754E445D41816ECF686E009
:100AE0009EDE9093B6028093B502FF90EF90DF9068
:100AF000CF9008951F920F920FB60F9211240BB64C
:100B00000F922F933F934F935F936F937F938F93A6
:100B10009F93AF93BF93EF93FF9381EC92E083DCBD
:100B2000FF91EF91BF91AF919F918F917F916F91C5
:100B30005F914F913F912F910F900BBE0F900FBE81
:100B40000F901F9018951F920F920FB60F921124BD
:100B50000BB60F922F938F939F93EF93FF93E09198
:100B6000D102F091D2028081E091D702F091D802B7
:100B700082FD12C090818091DA028F5F8F73209185
:100B8000DB02821751F0E091DA02F0E0EF53FD4F03
:100B9000958F8093DA0201C08081FF91EF919F9140
:100BA0008F912F910F900BBE0F900FBE0F901F9043
:100BB00018951F920F920FB60F9211242F933F9307
:100BC0008F939F93AF93BF938091AD029091AE02AC
:100BD000A091AF02B091B0023091AC0223E0230F9C
:100BE0002D3720F40196A11DB11D05C026E8230F65
:100BF0000296A11DB11D2093AC028093AD0290938B
:100C0000AE02A093AF02B093B0028091B102909176
:100C1000B202A091B302B091B4020196A11DB11D20
:100C20008093B1029093B202A093B302B093B40246
:100C3000BF91AF919F918F913F912F910F900FBED8
:100C40000F901F901895E1ECF2E01382128288EE6B
:100C500093E0A0E0B0E084839583A683B78388E225
:100C600092E09183808385EC90E09587848784EC83
:100C700090E09787868780EC90E0918B808B81EC69
:100C800090E0938B828B82EC90E0958B848B86EC4A
:100C900090E0978B868B118E128E138E148EEEE55C
:100CA000F3E0168217821086118612861386148648
:100CB000158616861786108A118A128A138A148A54
:100CC000158A0895789484B5826084BD84B5816066
:100CD00084BD85B5826085BD85B5816085BD809107
:100CE0006E00816080936E0010928100809181007F
:100CF0008260809381008091810081608093810077
:100D0000809180008160809380008091B100846038
:100D10008093B1008091B00081608093B000809199
:100D20009100826080939100809191008160809316
:100D30009100809190008160809390008091A1004B
:100D400082608093A1008091A10081608093A100C6
:100D50008091A00081608093A00080912101826039
:100D600080932101809121018160809321018091F4
:100D7000200181608093200180917A0084608093BB
:100D80007A0080917A00826080937A0080917A0064
:100D9000816080937A0080917A00806880937A00E5
:100DA0001092C1001092A2031092A3031092A40308
:100DB0001092A503109260031092610310926203D7
:100DC00010926303A8DD6B017C014B015C0128EBF1
:100DD000820E2BE0921EA11CB11C9DDD6C157D05C1
:100DE0008E059F0528F086169706A806B906A8F76F
:100DF00081EC92E09093A1038093A00358DA8BDDFD
:100E00006093600370936103809362039093630324
:100E100061E572E08091A0039091A103BCDD7BDDD0
:100E20006B017C014B015C018AE0880E911CA11CC6
:100E3000B11C71DD6C157D058E059F0528F08616A9
:100E40009706A806B906A8F781E08093740384E3A7
:100E500056DA85E354DA8AE052DA88E150DA89E139
:100E60004EDA8AE14CDA8BE14ADA8CE148DA8DE13C
:100E700046DA8EE144DA8FE142DA80E240DA81E25A
:100E80003EDA83E03CDA83E23ADA8CE238DA0FDAEF
:100E90004EDDEFDD24EFC22EDD24D394E12CF12CC6
:100EA0003ADD672B682B692B39F435DD623071052B
:100EB0008105910508F4FDC02EDD6093BD0270939D
:100EC000BE028093BF029093C0020091B9021091BC
:100ED000BA022091BB023091BC02601771078207F1
:100EE000930740F46093B9027093BA028093BB02F7
:100EF0009093BC020091B9021091BA022091BB02FA
:100F00003091BC024B015C01801A910AA20AB30A1B
:100F1000950184010A3F11052105310508F4C9C076
:100F20006093B9027093BA028093BB029093BC02A3
:100F3000C0926C03D0926D03E0926E03F0926F0347
:100F40001092700310927103109272031092730347
:100F50008091640390916503A0916603B09167034B
:100F60008093680390936903A0936A03B0936B0323
:100F7000D2DC60936403709365038093660390935F
:100F80006703C9DC6093600370936103809362031D
:100F900090936303C0DC4B015C0163E672E08091D7
:100FA000A0039091A103F7DC2AE041E050E060E06B
:100FB00070E08091A0039091A10302DD6AE672E0E7
:100FC0008091A0039091A103E6DC2AE0B501A40181
:100FD0008091A0039091A103F3DC6CE672E0809114
:100FE000A0039091A103D7DC8091640390916503E5
:100FF000A0916603B0916703B501A401481B590B8A
:101000006A0B7B0B2AE08091A0039091A103D8DCAE
:101010006CE672E08091A0039091A103BCDC40914A
:10102000640350916503609166037091670380913A
:10103000680390916903A0916A03B0916B03481B08
:10104000590B6A0B7B0B2AE08091A0039091A103BE
:10105000B7DC6EE672E08091A0039091A1039BDC67
:101060005ADCAB01BC012AE08091A0039091A1035E
:10107000A7DC60E772E08091A0039091A103E7DC18
:101080004ADC4B015C012B013C0122E0420E511C69
:10109000611C711C40DC681579058A059B0538F5D3
:1010A0003ADC6093640370936503809366039093C6
:1010B000670367E772E081EC92E0C9DC68EC70E0FE
:1010C00080E090E0F0DB86E3AADB803D9340ACF06B
:1010D00086E3A5DBBC01990F880B990B49D120E071
:1010E00030EC43E754E43ED118163CF45EC046169B
:1010F00057066806790670F6D3CFC091B702D09133
:10110000B802CC30D10538F1CE013CDC6091B5029B
:101110007091B602072E000C880B990BC4DBFE0100
:10112000EE0FFF1FEC5FFD4F60E080813CDA2196FF
:10113000C031D10529F0D093B802C093B70204C0E2
:101140001092B8021092B70286E069DB9093B60263
:101150008093B502B8CFFE018827EA56FF4F8F4F24
:10116000C3C180E090E0D1CF81E090E0CECF82E0BB
:1011700090E0CBCF83E090E0C8CF84E090E0C5CF93
:1011800085E090E0C2CF86E090E0BFCF87E090E0BE
:10119000BCCF88E090E0B9CF89E090E0B6CF8AE09C
:1011A00090E0B3CF8BE090E0B0CF68E872E081ECE4
:1011B00092E04DDC68EC70E080E090E074DB67E981
:1011C00072E081EC92E043DCE091B702F091B8026A
:1011D000EE0FFF1FEC5FFD4F808191814E9741F034
:1011E000B6DBB5DBB4DBB3DB44DC43DCA4D958CEDF
:1011F00061E08EE1D8D964EF71E080E090E053DBEC
:1012000096DB64EF71E080E090E04DDBC4E0D2E07B
:101210008E01F2E006321F0739F0F80180810E5F7F
:101220001F4F60E0C0D9F5CF64EF71E080E090E03F
:101230003ADB04E012E0F2E004321F0761F0F8014B
:1012400080810E5F1F4F61E0AED96AEF70E080E0F1
:1012500090E029DBF0CF06E212E0580122E0A21A6A
:10126000B10860E0F50180819ED96AEF70E080E00E
:1012700090E019DBF4E0AF16F2E0BF0679F7025018
:10128000110961E0F80180818ED96AEF70E080E099
:1012900090E009DBF2E004301F0789F722E0C43256
:1012A000D20709F49DCF8881229660E07CD96AEF4D
:1012B00070E080E090E0F7DAF1CF8F929F92AF92EA
:1012C000BF92CF92DF92EF92FF92CF93DF93EC0128
:1012D000688179818A819B816115710581059105FC
:1012E00021F464E279ED8BE597E02DE133EF41E005
:1012F00050E0BFD049015A019B01AC01A7EAB1E41B
:10130000D4D06B017C01ACEEB4EFA5019401D9D02F
:10131000DC01CB018C0D9D1DAE1DBF1DB7FF03C0B1
:101320000197A109B04888839983AA83BB83BC0134
:10133000CD019F77DF91CF91FF90EF90DF90CF901D
:10134000BF90AF909F908F900895B7CF80E092E0CC
:10135000B4CF6093000270930102809302029093D5
:101360000302089540D008F481E00895E89409C08C
:1013700097FB3EF490958095709561957F4F8F4FC8
:101380009F4F9923A9F0F92F96E9BB279395F695DE
:10139000879577956795B795F111F8CFFAF4BB0F5C
:1013A00011F460FF1BC06F5F7F4F8F4F9F4F16C0C0
:1013B000882311F096E911C0772321F09EE8872F4A
:1013C000762F05C0662371F096E8862F70E060E006
:1013D0002AF09A95660F771F881FDAF7880F96957F
:1013E000879597F90895990F0008550FAA0BE0E823
:1013F000FEEF16161706E807F907C0F012161306D7
:10140000E407F50798F0621B730B840B950B39F416
:101410000A2661F0232B242B252B21F408950A267C
:1014200009F4A140A6958FEF811D811D0895A1E2C9
:101430001A2EAA1BBB1BFD010DC0AA1FBB1FEE1F4E
:10144000FF1FA217B307E407F50720F0A21BB30B99
:10145000E40BF50B661F771F881F991F1A9469F715
:1014600060957095809590959B01AC01BD01CF0171
:101470000895052E97FB16F400940FD057FD05D064
:10148000D6DF07FC02D046F408C050954095309551
:1014900021953F4F4F4F5F4F0895909580957095E0
:1014A00061957F4F8F4F9F4F08950FD0A59F900D4F
:1014B000B49F900DA49F800D911D11240895B7FF36
:1014C000F4CFF3DF821B930B0895A29FB001B39F6B
:1014D000C001A39F700D811D1124911DB29F700D3D
:1014E000811D1124911D0895EE0FFF1F881F8BBFD2
:1014F0000790F691E02D199481E090E0F89400C0F7
:04150000F894FFCF8D
:1015040001000000340035000A00180019001A0018
:101514001B001C001D001E001F00200021000300F2
:1015240023002C000000000034029E01CD017A0249
:10153400FE01DC01F0014C61756E6368696E672021
:1015440067616D652073657474696E67732E2E2EE2
:1015540000564D4450565F317C315F564D445056D1
:101564000D0A00564D4450455F003A323A007C0063
:101574005F564D445045005374617274696E672020
:1015840067616D652E2E2E00456E64696E67206757
:10159400616D652E2E2E004C6F61642067616D6550
:0C15A40020726573756C74732E2E2E007F
:00000001FF
